:100000000C9446000C9465000C9465000C946500FB
:100010000C9465000C9465000C9465000C946500CC
:100020000C9465000C9465000C9465000C946500BC
:100030000C9465000C94A3000C9465000C9465006E
:100040000C9465000C9465000C9465000C9465009C
:100050000C9465000C9465000C9465000C9465008C
:100060000C9465000C9465000C9465000C9465007C
:100070000C9465000C9465000C9465000C9465006C
:100080000C9465000C9465000C94650011241FBE4F
:10009000CFEFD0E4DEBFCDBF11E0A0E0B1E0E4E7F8
:1000A000F3E000E00BBF02C007900D92A231B10750
:1000B000D9F721E0A2E1B1E001C01D92AB31B20756
:1000C000E1F70E94A0010C94B8010C940000CF93BA
:1000D000C82F8A3019F48DE00E9467008091C0001B
:1000E00085FFFCCFC093C60080E090E0CF910895DB
:1000F0008BE0809381008DE790E09093890080935E
:10010000880082E080936F00109285001092840036
:100110008091000190910101A0910201B091030131
:100120008093120190931301A0931401B0931501D1
:100130008FB780688FBF089510928100089581E085
:100140008093160108951F920F920FB60F921124FB
:100150000BB60F922F933F934F935F936F937F93C1
:100160008F939F93AF93BF93EF93FF93809112016F
:1001700090911301A0911401B09115010197A1096B
:10018000B1098093120190931301A0931401B093CD
:100190001501892B8A2B8B2B91F40E949F00809153
:1001A000000190910101A0910201B091030180939F
:1001B000120190931301A0931401B0931501FF91C4
:1001C000EF91BF91AF919F918F917F916F915F91CF
:1001D0004F913F912F910F900BBE0F900FBE0F903C
:1001E0001F901895609300017093010180930201A4
:1001F0009093030160931201709313018093140193
:100200009093150108958091180190911901813002
:10021000910571F030F08230910589F00397B1F0CB
:100220001BC081E090E0909319018093180114C0E5
:1002300082E090E090931901809318010DC083E053
:1002400090E0909319018093180106C084E090E03B
:1002500090931901809318018091180190911901D0
:100260008230910571F018F4019739F008958330C8
:10027000910559F0049769F0089581E08093170182
:10028000089582E080931701089584E08093170118
:10029000089588E080931701089580911801909146
:1002A00019018530910599F08630910549F0892B27
:1002B000A1F486E090E090931901809318010DC09D
:1002C00085E090E0909319018093180106C086E0C4
:1002D00090E09093190180931801809118019091FA
:1002E00019018530910531F0069731F488E080934B
:1002F0001A01089510921A010895809118019091A1
:100300001901009719F0079741F00DC087E090E0C0
:10031000909319018093180106C087E090E09093B4
:100320001901809318018091180190911901079784
:1003300031F49091170180911A01890F85B90895C0
:1003400014B88FEF85B968EE73E080E090E00E940A
:10035000F2000E9478000E9403010E944D010E9459
:100360007D01809116018823E1F310921601F3CFED
:04037000F894FFCF2F
:10037400010000000000000200000000670000000F
:02038400000077
:00000001FF
